:10000000B9C10000F0C10000EEC10000ECC1000069
:10001000EAC10000E8C10000E6C10000E4C1000040
:10002000E2C10000E0C100000C94901B0C94781C0D
:100030000C94451BD8C10000D6C10000D4C10000FB
:10004000D2C10000D0C10000CEC10000CCC1000070
:10005000CAC100000C946C1BC6C10000C4C10000E2
:10006000C2C10000C0C10000BEC10000BCC1000090
:10007000BAC10000B8C10000B6C10000B4C10000A0
:10008000B2C10000B0C10000AEC10000ACC10000B0
:10009000AAC10000A8C10000A6C10000A4C10000C0
:1000A000A2C10000A0C100009EC10000050109021C
:1000B000A10185020901A1000509190129081500FE
:1000C0002501950875018102050109300931158165
:1000D000257F95027508810609381581257F9501D0
:1000E00075088106050C0A38021581257F95017572
:1000F000088106C0C005010980A101850319012AF4
:10010000B700150126B700950175108100C0050CD8
:100110000901A101850419012AA002150126A002E6
:10012000950175108100C005010906A1018506052C
:100130000719E029E71500250195087501810205D9
:1001400007190029EF1500250195F07501810205B9
:10015000081901290595057501910295017503910D
:1001600001C00660FF0961A1010962150026FF00B8
:100170009520750881020963150026FF00952075FA
:10018000089102C005010906A101050719E029E748
:1001900015002501950875018102950175088101F9
:1001A0000507190029FF150026FF0095067508812F
:1001B000000508190129051500250195057501910E
:1001C00002950175039101C009025B00030100A0C3
:1001D000FA090400000103010100092111010001D5
:1001E00022440007058103080001090401000203FD
:1001F00000000009211101000122220007058203ED
:100200002000010705030320000109040200010387
:1002100000000009211101000122B6000705840336
:100220002000011201000200000008343400010126
:1002300001010200011803670062005F006D0061A8
:1002400000630072006F0070006100640000003EF7
:100250000347006C0061007300730062006F00616F
:1002600000720064002000500072006F006400758E
:100270000063007400200044006500760065006C97
:10028000006F0070006D0065006E007400000004D7
:100290000309041E001F0020002100220023002467
:1002A00000250026002700040005001E001F002076
:1002B000002100220023002400250026002700043E
:1002C0000005000000000000000000000000000029
:1002D000000000000000000000000000000000001E
:1002E000000000000000007E0F00D4FFFFFFC700E9
:1002F00000007800000000000000002A2B28000009
:1003000000000000000000000000000000002900C4
:100310000000002C1E3420212224342627252E36CE
:100320002D3738271E1F202122232425263333363C
:100330002E37381F0405060708090A0B0C0D0E0F8F
:10034000101112131415161718191A1B1C1D2F3112
:1003500030232D350405060708090A0B0C0D0E0F76
:10036000101112131415161718191A1B1C1D2F31F2
:1003700030354C0011241FBECFEFDAE0DEBFCDBF19
:1003800004B603FE19C08091970290919802A09143
:100390009902B0919A028730904BA740B04B61F41C
:1003A00010929702109298021092990210929A025B
:1003B000E0E0F8E3099500C011E0A0E0B1E0E8EC6E
:1003C000FBE302C005900D92A63AB107D9F722E0EF
:1003D000A6EAB1E001C01D92A739B207E1F70E9479
:1003E000AB160C947D1D0CCE809350020895809323
:1003F0005102089521E001C0220F8A95EAF7809109
:100400005102822BF4CF21E001C0220F8A95EAF736
:10041000822F8095909151028923E9CF282F933024
:1004200090F5843080F534E0939FC0011124820F51
:10043000911D51E081FD54E080FD550F82FD5295E4
:1004400023E0969587952A95E1F7FC01EE0FFF1FB3
:10045000E80FF91FE45CFD4F20E030E070E04191CF
:10046000DF01CB01022E02C0969587950A94E2F730
:100470008695880B8427852384278E932F5F3F4F93
:100480002330310561F70895282F933070F58430BB
:1004900060F534E0939FC0011124820F911D682FF5
:1004A000677023E0969587952A95E1F7FC01EE0F9A
:1004B000FF1FE80FF91FE45CFD4F40E050E080E0D3
:1004C000219130E0062E02C0369527950A94E2F776
:1004D0002170042E01C0220F0A94EAF7822B4F5F8D
:1004E0005F4F4330510561F7089580E00895909182
:1004F000510221E030E0F90101C0EE0F8A95EAF7E0
:10050000D90101C0AA0F6A95EAF7EA2B01C0220FB0
:100510004A95EAF7892F8E23E81303C0892F822B8F
:1005200066CF2095822F8923FBCFE09157029091CF
:100530005602E91302C080E008959F0157E0E59F4D
:10054000F0011124E85AFD4F5181561306C0508125
:10055000581303C05581541305C02F5F3F4FF90155
:10056000E770E7CF81E0089580915702209156020D
:10057000281301C0089501968770FACF9091520216
:100580008095892380935202282F277061F4891760
:1005900051F09091540292FF06C0869586958695FB
:1005A00032DF10925202089580914D0290915502CF
:1005B000892B90914E029115C9F0892B90910E01D3
:1005C000913021F49091530297FD11C096E02AEAF0
:1005D00031E040E09150F90150812F5F3F4F5111C0
:1005E0004F5F9111F7CF411110924E0208959EE195
:1005F00022EB31E0EECF8095982F80914D02892338
:1006000080934D020895803E9105D1F1C8F4813365
:10061000910509F481C048F48932910509F471C04B
:100620008A32910509F47FC0089589339105E1F07C
:1006300082389105C9F08533910509F45DC00895AC
:10064000843E9105D1F148F4823E910531F1833E1B
:10065000910541F181EE90E00895863E9105C1F14A
:10066000873E9105F1F1089520915302237009F01E
:1006700064C02091540223FF14C089E290E00895E1
:100680002091530220FD45C03091540230FF09C033
:1006900024FD24C083EE90E008952091530222FDB2
:1006A000F7CF08952091530222FD44C030915402A7
:1006B00030FD43C024FFF5CF11C02091540221FF2B
:1006C000F0CF8091530284FD09C087EE90E0089539
:1006D0002091530223FFE5CF24FFF7CF80E090E085
:1006E00008952091530223FD2BC03091540231FF15
:1006F000E1CF84EE90E008952091530225FFD1CF01
:10070000BCCF2091530225FD1EC02091540223FF2F
:10071000C8CF89E390E008952091530226FFC1CF0E
:100720008AE290E008952091530226FFBACF81E338
:1007300090E0089582EE90E0089580EE90E00895B4
:1007400086EE90E0089585E390E00895909153023D
:1007500092FF10C041E0282F2471243009F040E0BE
:1007600031E0282F2871283009F030E0431711F0CC
:100770002CE0822793FF10C041E0282F2471243100
:1007800009F040E031E0282F2871283109F030E0ED
:10079000431711F02CE082273091540230FF10C033
:1007A00051E0282F2171213009F050E041E0282F3D
:1007B0002871283009F040E0541711F029E0822711
:1007C00031FF10C041E0282F2171213109F040E0B4
:1007D00031E0282F2871283109F030E0431711F05B
:1007E00029E0822794FD877E08950F931F93CF936E
:1007F000DF9309DFEC01D23508F04DC0D03508F0A9
:10080000C3C0C03ED10530F5CD3CD10508F09AC03B
:10081000C83AD10578F4C53AD10508F090C0C13086
:10082000D10599F1CE010497813A910570F1C0E0AC
:10083000D0E02BC0CE01885A91094B97C0F7C85A17
:10084000D0E0CC0FDD1FC65CDE4F0990D881C02DF3
:10085000D4641BC0D03490F4D03208F0A8C0C83E95
:10086000D10598F0CE0191509F3108F78D2F6EDFA2
:10087000082F8C2F90E0C7DE902B54C08C2F90E077
:10088000C2DEDF70C82FD92BD06ACE01DF91CF91A5
:100890001F910F910895C03882E5D807B8F5C0368A
:1008A00082E5D80708F056C0C03482E5D807C8F4FE
:1008B000C03282E5D80708F047C08C2F8695869510
:1008C00020E2829FC0011124C37021E030E002C009
:1008D000220F331FCA95E2F7E901C82BD92BDD6837
:1008E000D4CF8C2F86958695877020E2829FC00199
:1008F0001124C37021E030E002C0220F331FCA95DB
:10090000E2F7E901C82BD92BDC68BFCFC03C82E5F8
:10091000D80750F48C2F8F71C03AD24580F5982FAC
:1009200084EF906AEC01B1CFCE01805C9245809754
:1009300008F07DCFDC2FDF71C0EFD06AA6CFA4977F
:10094000D064A3CFD065A1CF8C2F8F71D82FC1EFEA
:10095000D06A9BCF8C2F86958695877020E2829FE8
:10096000C0011124C37021E030E002C0220F331F08
:10097000CA95E2F7E901C82BD92BDA6886CFE6DE03
:10098000C0E0D82FD06281CF8C2F8F71DFDE93E053
:10099000CC0FDD1F9A95E1F7DF70282F84FF04C08C
:1009A00090E1899F90011124C22FD0696ECF8D2FC5
:1009B0008F71CCDE082F8C2F90E025DE902BEC0180
:1009C000E1CF80E00895F894E82FE295EF70F0E031
:1009D00041A18F7021E001C0220F8A95EAF7922F82
:1009E0009095942391A392A1822F892B82A378942E
:1009F000089590E06115D1F08F5D9E4FFC018081DC
:100A00008F3F99F0E82FE295EF70F0E041A18F70F1
:100A100021E001C0220F8A95EAF7922F9095942346
:100A200091A392A1822F892B82A30895815E9E4F6C
:100A3000E5CF90E06115A9F08F5D9E4FFC0120810C
:100A40002F3F91F0E22FE295EF70E05EF0E08081C1
:100A500090E02F7002C0959587952A95E2F78170F6
:100A60000895815E9E4FEACF80E00895382F25EBF0
:100A70003203C001112497FF04C080589109892FC7
:100A8000089580589F4FFBCF8091440280FD14C091
:100A900081FD14C082FD16C080914302811581F052
:100AA0008E3180F420E5829FC00111246EE170E058
:100AB0000E94BB1C862F089584E1089588E2089562
:100AC00088E0089580E508958091440280FD17C074
:100AD00081FD17C082FD19C080914202811599F0F5
:100AE000883298F428E0829FC001112468E270E007
:100AF0000E94BB1C6115710551F0862F089562E0BC
:100B0000FCCF64E0FACF61E0F8CF68E0F6CF81E097
:100B10000895E0913202F0913302309739F001905C
:100B2000F081E02D309711F00995089580E0089547
:100B3000A3E0B0E0EEE9F5E00C94EB1C2091E901B4
:100B40003091EA0128173907B1F08093E9019093B9
:100B5000EA01E0913202F0913302309761F00084B3
:100B6000F185E02D309739F023E029838A839B8338
:100B7000CE01019609952396E2E00C94071DA3E0AF
:100B8000B0E0E5ECF5E00C94EB1C2091E70130912E
:100B9000E80128173907B1F08093E7019093E80145
:100BA000E0913202F0913302309761F00084F185D8
:100BB000E02D309739F024E029838A839B83CE018E
:100BC000019609952396E2E00C94071D90910E0181
:100BD000913099F0AAEAB1E0EFEF90E02C91821702
:100BE00059F01196EF3F19F4211101C0E92F9F5FD1
:100BF0009630A1F7EF3FC1F408959091530297FF0B
:100C0000E9CFE82FE695E695E695803FA8F7F0E076
:100C1000E055FE4F877021E001C0220F8A95EAF768
:100C20008281822B82830895FE2FFF0FFF0BE855F0
:100C3000FE4FF8CF90910E01913021F49091530224
:100C400097FD0CC0EAEAF1E09191891302C0DF013F
:100C50001E9291E0E03BF907B9F70895E82FE69579
:100C6000E695E695803FC8F7F0E0E055FE4F9DEF32
:100C700081FD97EF80FF959582FD92958281892372
:100C80008283089580910D0108952FB7F894809183
:100C9000E3019091E401A091E501B091E6012FBF3D
:100CA0000895F3DF9C019091470280914802982BB0
:100CB00021F0209303023093040290914902809125
:100CC0004A02982B21F02093010230930202E09116
:100CD0003202F0913302309759F00680F781E02D0F
:100CE000309731F082E08093450285E492E00995E7
:100CF0000895611509F440C0E82FED5CE33148F434
:100D0000F0E0E158F24E0C94CE1CBEDE819580934B
:100D10004802C7CFB9DEFBCFB7DE8195809347028B
:100D2000F8CFB2DEFBCFD0DE80934902F2CFCCDE2B
:100D30008195FACFC9DE819580934A02EACFC4DE5D
:100D4000FBCF815D990B21E001C0220F8A95EAF764
:100D500080914602822B80934602DBCF8091440231
:100D6000816080934402D5CF809144028260F9CFA4
:100D7000809144028460F5CF409147028D3C59F444
:100D80008091480287FF0DC010924802411559F426
:100D90001092430208C08E3C81F4809148021816DC
:100DA0009CF3411581F08091490290914A02892B70
:100DB00009F0AFCF10924202ACCF8F3C41F447FF15
:100DC000F0CF10924702809148028115E0CF803D1C
:100DD00019F41416B4F3E5CF90914902893D29F432
:100DE0001916FCF610924902DCCF8A3D19F497FFE0
:100DF000D8CFF8CF90914A028B3D29F497FFD1CFFD
:100E000010924A02CECF8C3D19F41916CCF3C9CFFB
:100E1000982F915D983078F4815D990B21E001C0A5
:100E2000220F8A95EAF7822F8095909146028923B6
:100E300080934602B6CF8D3D31F4809144028E7F7F
:100E400080934402AECF8E3D21F4809144028D7F89
:100E5000F7CF8F3D09F0A5CF809144028B7FF0CF73
:100E60002FB7F8946091E3017091E4018091E5015E
:100E70009091E6012FBF0895FC018091D9019091D6
:100E8000DA018617970748F06115710529F48091FA
:100E9000E8008E778093E800CB0140E0009741F4B2
:100EA000411106C08091E80082FF30C080E00895C3
:100EB000209106022115B1F12530B1F12091E80011
:100EC00023FD2EC02091E80022FDECCF2091E80008
:100ED00020FFE4CF4091F3002091F200342F0097DF
:100EE00019F02830310558F041E02830310509F07B
:100EF00040E02091E8002E772093E800CFCF419189
:100F00004093F10001972F5F3F4FE9CF8091060298
:100F1000811541F0853041F08091E80083FFC2CF18
:100F200081E0089582E0089583E00895982F9093DA
:100F3000E900891771F07091EC002091ED0050915B
:100F4000F00021FD09C09F5F973089F78093E90089
:100F50000895762F242F50E03091EB003E7F3093A0
:100F6000EB003091ED003D7F3093ED003091EB00D0
:100F700031603093EB007093EC002093ED005093C0
:100F8000F0002091EE0027FDDECF08958091D3017F
:100F900087FF13C08091E80082FF06C08091E800BF
:100FA0008B778093E8000895809106028111F2CF3B
:100FB0000895809106028115D9F38091E80080FFA1
:100FC000F8CF8091E8008E77ECCF2091E40030914B
:100FD000E50095E6A9012091EC00822F817020FFA9
:100FE00006C08091E80080FF06C080E0089520914F
:100FF000E80022FD1AC080910602811589F0853033
:1010000089F08091EB0085FD0FC02091E4003091C4
:10101000E50042175307F9F29150E1F684E0089594
:1010200082E0089583E0089581E00895CF93DF93EF
:10103000C8EDD0E088818F7E8883E7EDF0E0808185
:101040008160808384E082BF81E08093D2018881C7
:101050008E7F8883E2EE10821092DA00A1EEB0E07B
:101060001C9288818F7788838881806888838881B3
:101070008F7D888319BC109206021092D1011092C4
:10108000EE011092D001A0EE8C918B7F8C93888121
:101090008160888342E060E080E048DFA1EEB0E05C
:1010A0008C918E7F8C93E2EEF0E080818160808372
:1010B000808188608083E0EE80818E7F808388815C
:1010C00080618883DF91CF910895E8EDF0E0808121
:1010D0008E7F80831092E2001092DA001092E1007D
:1010E000A0EEB0E08C9181608C9380818F778083BB
:1010F00019BCA7ED8C918E7F8C9380818F7E80832D
:101100001092D201089581E08093E00080E2809304
:10111000D8001092C9008FE19EE40197F1F700C05A
:101120000000A7E0B0EBCD01809397029093980266
:10113000A0939902B0939A0288E19CE00FB6F894CC
:10114000A895809360000FBE90936000FFCF0F932F
:101150001F93CF93DF93EB018A01909106029430A5
:1011600059F58093E9008FEF9091E80095FD06C056
:1011700095ED9A95F1F700008150B1F78091E80064
:1011800085FF1AC022DF811112C08091E80085FD21
:1011900006C08091E8008E778093E800F3CF8881C5
:1011A0008093F1000150104011F02196EECF809114
:1011B000E8008E778093E800DF91CF911F910F9127
:1011C0000895603229F440E250E0BC0182E0BFCFD4
:1011D0000895CF93DF93EC0148E050E0BC0181E03B
:1011E000B6DF88E0FE01ABEDB1E001900D928A958B
:1011F000E1F7DF91CF91089540E250E0BC0184E037
:10120000A6CF46E050E0BC0184E0A1CF43E050E02F
:10121000BC0184E09CCF9091540292FB222720F9DC
:10122000281771F080FB92F9909354026091530259
:101230007091540284E090E00E945C1D82E09EC99F
:1012400008951F93CF93DF93122F982F942B9430F0
:10125000C8F46330B8F498E0699FE0011124C40F2A
:10126000D11DC40FD11D98E1899FC00DD11D11243E
:10127000632FCE0189960E94421D612FCE018A966E
:101280000E94421DDF91CF911F910895AF92BF92AE
:10129000CF92DF92FF920F931F93CF93DF93A12CF6
:1012A000B12CC0E06501D0E018C021E030E0C230D0
:1012B00020F4F801859194919C014F2D6D2F8C2F76
:1012C000C0DFF3940E5F1F4F8F2D843071F7DF5F07
:1012D00084E0C80ED11CD33039F08601000F111FF5
:1012E0000D561D4FF12CE1CFCF5F8CE0A80EB11C45
:1012F000C430C1F6DF91CF911F910F91FF90DF9025
:10130000CF90BF90AF90089580910E01813061F52C
:101310008091530287FF28C047D98093B10140E2F2
:1013200050E062E172E080EB91E00E94701D892B39
:10133000D1F080E2E0EBF1E0A2E1B2E001900D92A9
:101340008A95E1F7E0913202F0913302309759F03B
:101350000480F581E02D309731F086E08093B00174
:1013600080EB91E0099508951FD98093A80148E08A
:1013700050E064E372E088EA91E00E94701D892BDE
:1013800091F388E0E8EAF1E0A4E3B2E001900D9285
:101390008A95E1F7E0913202F0913302309719F328
:1013A0000280F381E02D3097F1F288EA91E0DACF04
:1013B000CF93C82F8115C1F08450813A70F5809188
:1013C0000E01813021F48091530287FD0FC0EAEABB
:1013D000F1E08081C817E9F0319681E0E03BF80741
:1013E000C1F78C2FF3DB90DFCF910895EC2FE695BA
:1013F000E695E695F0E0E055FE4F828190E04C2FB7
:10140000477021E001C0220F4A95EAF78223892B19
:1014100041F38C2F0FDC78DFE4CF8C2F805E883097
:1014200060F4C77081E001C0880FCA95EAF7C091E7
:101430004D02C82BC0934D02D6CF8C2F855A8330D6
:1014400028F48C2F8452990B73DBCECFEC2FE85A03
:10145000EB3148F4F0E0EE0FFF1FE059FE4F8081C2
:1014600091818DDBC1CF8C2F8D5C833108F0BCCF97
:1014700061E08C2F3EDCB8CF811541F1982F94505C
:10148000913A10F4D7DB40CF982F905E983050F40B
:10149000982F81E091FD84E090FD880F92FD829568
:1014A000AAD8F1CF982F955A933018F480E090E0A5
:1014B0003FCB982F985A9B3118F480E090E05FCB97
:1014C000982F9D5C933110F460E013CC08951F9326
:1014D000CF93DF93182FEB016BDF209731F4812F2F
:1014E000CBDFDF91CF911F9108958FE99FE00197A6
:1014F000F1F700C000002197F0CF60E570E089337C
:1015000011F060E070E0E3CF811531F090914D0271
:10151000982B90934D02F8CE0895811511F06BD859
:10152000F3CE0895FF920F931F93CF93DF93C62FAF
:10153000D42FF22E8115A1F060934B02A6DB80938D
:10154000EB019093EC0181E0C1FD84E0C0FD880FC8
:10155000C2FD8295D9DFCDB7DEB7E5E00C94041D5E
:1015600080914B0268132DC00091EB011091EC01AA
:101570008CDB801B910B883C910518F51D2F105EAC
:10158000CD1791F0C77001E0802F01C0880FCA9578
:10159000EAF7C3DF183040F48D2F877001C0000FC9
:1015A0008A95EAF7802FB0DF8F2DA7DF81E0D1FD8C
:1015B00084E0D0FD880FD2FD8295183060F6ADDF53
:1015C000CACF81E0C1FD84E0C0FD880FC2FD8295D5
:1015D000F6CF10924D0280910E01813001F580917D
:1015E000530287FF1CC0E2EBF1E08EE111928A9575
:1015F000E9F780E090E09CDA80E090E0C0DA1092B9
:10160000550282DEE5E4F2E086E011928A95E9F780
:1016100010924302109242021092440242CBEAEA34
:10162000F1E086E0E3CFD5DF8FEF94E32CE081504B
:1016300090402040E1F700C0000088E19CE00FB638
:10164000F894A895809360000FBE90936000FFCF40
:10165000AAE2B0E0EEE2FBE00C94EA1C83ED91E03C
:10166000FC0101962091F100208321E08B3D92073F
:10167000B9F78091D401893009F457C0C8F4823099
:1016800009F4B3C0833009F483C0813081F18091C3
:10169000E80083FFE7C08091D3019091D4019A3094
:1016A00008F0E0C0E92FF0E0EE56F24E0C94CE1CAC
:1016B0008A3009F48AC08B3051F78091D30181328E
:1016C00031F78091D7019091D801892B01F7809152
:1016D000E800877F8093E80059DC81E09091D50194
:1016E000911101C080E080930E0173DFD0CF809113
:1016F000D301813A61F68091E800877F8093E8000A
:101700008091D7019091D801892B59F060E080E059
:1017100090E070E0B1DB8091E8008B778093E80087
:10172000B6CF68E08BED91E0F4CF8091D3018132A8
:1017300009F0ADCF8091D7019091D8018D7F892B91
:1017400009F0A5CF8091E800877F8093E800809121
:10175000E80082FF18C02091F3008091F200922FE0
:10176000029731F48091F100813011F0863021F43C
:101770008091F10080930D018091E8008B77809338
:10178000E80004DC84CF809106028111E0CF7FCF96
:101790008091D301813A09F07ACF8091D70190915D
:1017A000D801892B09F073CF8091E800877F80935F
:1017B000E8008091E80080FFFCCF80910E018093CB
:1017C000F1008091E8008E77DACF8091D3018132E9
:1017D00009F05DCF8091E800877F8093E800D6DB39
:1017E0008091D60180930C0152CF8091D301813A30
:1017F00009F04DCF8091E800877F8093E8008091C9
:10180000E80080FFFCCF80910C01D9CF803889F0AF
:10181000823841F58091D7018F70873018F5809319
:10182000E9008091EB0085FB882780F91092E900A0
:1018300006C08091EE01880F9091D001892B909184
:10184000E800977F9093E8008093F1001092F100F8
:101850008091E8008E7723C0811116C08091D50158
:10186000813009F18091E80083FF0AC08091E8008F
:10187000877F8093E8008091EB0080628093EB008B
:10188000AA96E3E00C94061D823061F78091D501A1
:10189000811579F01092E9008091E800877F8093AC
:1018A000E80074DBDFCF933009F080E08093EE0135
:1018B000F1CF8091D7018F70282F2150263090F6DC
:1018C0008093E9002091EB0020FFE4CF933031F4C6
:1018D0008091EB0080628093EB00DCCF9091EB0075
:1018E00090619093EB0021E001C0220F8A95EAF706
:1018F0002093EA001092EA008091EB008860EBCF21
:101900008111B0CF8091D5018F77182F8091E3009E
:101910008078812B8093E3008091E800877F80931B
:10192000E80034DB8091E80080FFFCCF8091E30089
:1019300080688093E30083E0111101C082E080930E
:10194000060290CF8058823008F08CCF8091D5016C
:101950009091D6018C3D23E0920789F583E08A833C
:101960008AE289834FB7F894DE01139620E03EE0C7
:1019700051E2E32FF0E050935700849120FF03C021
:1019800082958F703F5F8F708A30B8F0895C8D933D
:101990001D922F5F243169F74FBF8091E800877F48
:1019A0008093E8006AE270E0CE01019665DA8091EA
:1019B000E8008B778093E80055CF805DE8CF292F32
:1019C00030E02330310509F44EC078F5213031057F
:1019D00009F47DC08BE590E0E8ECF1E022303105C0
:1019E00009F040CF2091E800277F2093E800209164
:1019F000D9013091DA018217930708F49C0140E085
:101A00002115310509F068C0411166C08091E800D8
:101A100082FDCDCF80910602811549F2853039F2E1
:101A20008091E80083FFF2CFC2CF8091D7019091DF
:101A3000D8012132310509F43BC02232310509F0C9
:101A400011CF8330910508F00DCFFC01EE0FFF1F81
:101A5000ED5EFE4F0190F081E02D805F9E4FDC0136
:101A60008C9190E011C0282F30E0813089F0223035
:101A70003105B1F0232B09F0F5CEEFE8F2E0E49167
:101A80008E2F90E0EFE8F2E0009709F4EBCEAACFBA
:101A9000EFE4F2E0E4918E2F90E0EFE4F2E0F4CF97
:101AA000E5E3F2E0E4918E2F90E0E5E3F2E0ECCFA5
:101AB0008330910508F0D6CE880F991FFC01E75EB0
:101AC000FE4F0190F081E02D89E090E08BCF82E124
:101AD00090E0E3E2F2E086CF80910602811509F4FE
:101AE00066CF853009F463CF8091E80083FD5FCF36
:101AF0008091E80082FD8ACF8091E80080FF80CF4E
:101B00004091F3008091F200942F2115310519F0D6
:101B10008830910550F041E0089709F040E080914D
:101B2000E8008E778093E8006BCF44914093F100FA
:101B30003196215031090196E8CF803809F092CED4
:101B40008091E800877F8093E8008091D1018093A5
:101B5000F1007ECE811186CE8091D501182F823082
:101B600008F080CE8091E800877F8093E800109392
:101B7000D1010CDA1115D9F084E08093060242E01D
:101B800061EC81E0D3D942E261EC84E0CFD942E25A
:101B900061EC82E0CBD942E260EC83E0C7D980916E
:101BA0000602843051F482E080930F015BCE809175
:101BB000E30087FDE1CF81E0E0CF81E0F5CFA3E056
:101BC000B0E0E5EEFDE00C94E21CFE013196DF0191
:101BD00083E01D928A95E9F783E3C82E81E0D82E31
:101BE0007F0106E311E0AE2E9F2CF60181916F017B
:101BF0008F3F09F43EC0F894E82FE295EF70F0E0D3
:101C000021A18F7041E001C0440F8A95EAF7922F1D
:101C1000942B91A392A1842F8095892382A37894F9
:101C200000C0E6E3F1E031E0B12C21912F3F79F0E3
:101C3000A22FA295AF70A05EB0E08C9190E02F70C3
:101C400002C0959587952A95E2F780FF39C080E01C
:101C5000B82A330F81E0EA33F80739F7F6018291A9
:101C60008F3F11F00E94E30480EA8A95F1F7F701B3
:101C7000B0828FEFE81AF80A0C151D0509F0B5CFF0
:101C800043E050E06A2D792D8DE092E00E94701DB6
:101C9000892BC1F089819A81AB8180930D02909349
:101CA0000E02A0930F0281E0809309020E94450674
:101CB00080930702909308022396EBE00C94FE1C9D
:101CC000832FC6CF809109028115B1F300910702DD
:101CD000109108020E944506801B910B059760F346
:101CE00043E050E06DE072E08AE092E00E94701DF7
:101CF000892B61F080910D0290910E02A0910F024C
:101D000080930A0290930B02A0930C021092090296
:101D1000D3CF0F931F93CF93DF93982F942B9430AF
:101D2000F0F46330E0F498E0699FE0011124C40FFF
:101D3000D11DC40FD11D98E1899FC00DD11D112463
:101D4000CE0189960E94261D082FCE018A960E94F8
:101D5000261D902FDF91CF911F910F91089580E064
:101D600090E0F8CF462F733030F4982F962B9430B4
:101D700010F4672FCECF80E090E00895CF92DF92ED
:101D8000FF920F931F93CF93DF936C010091510249
:101D900080915002082BC3E0D0E010E0C8010C2E67
:101DA00002C0959587950A94E2F780FD0CC02197B3
:101DB000A8F7F12C8F2DDF91CF911F910F91FF90FC
:101DC000DF90CF900895FC2EB6018C2FCBDF0E94C0
:101DD000F503019761F3EECF0F931F93CF93FC01AF
:101DE000258100811181C801211579F0611569F003
:101DF000C5DFC82F682FC8010E940E02B8018C2FC2
:101E0000B1DFCF911F910F9108950E944402C82F16
:101E1000F5CFCF93DF93EC01B1DFBE01A3DF0E94CA
:101E2000F503DF91CF910895FC012481211599F0EC
:101E300080819181EEDF282F92959F70963099F0E6
:101E400060F4925F9F70923030F4203FB1F038F42C
:101E500081E0283E38F080E008959A5FF3CF81E07A
:101E6000243FC9F7089591E0213F09F090E081E017
:101E7000283E08F080E0892B089581E008956737B7
:101E800023E072078105910528F4CB0187579F4F06
:101E90000C94261D80E00895CF92DF92EF92FF927E
:101EA000CF93DF93EC01C880D980EA80FB80B60134
:101EB000C701E5DF9FEFC91AD90AE90AF90AC88202
:101EC000D982EA82FB82DF91CF91FF90EF90DF9081
:101ED000CF900895A4E0B0E0E0E7FFE00C94E01CB0
:101EE0007C01FC018481811509F475C061E0C701A2
:101EF00073DF8C01F7018581811509F4CBC098014E
:101F000037572038310508F073C4003108F054C049
:101F100066E773E080E090E0B2DF81114DC0A12C54
:101F2000B12C4501011118C089829A82AB82BC8212
:101F30008E010F5F1F4FC801AFDFB02EA12E813081
:101F400008F43AC009F062C0C801A6DF8130B9F4D4
:101F5000C801A2DFD2DAEFCF87E7881683E09806C0
:101F6000A104B10449F1B401C50189DF9FEF891AC9
:101F7000990AA90AB90A8111EFCF0150D3CF823053
:101F800021F4C80189DF14DAD6CF833021F4C801E7
:101F900083DF72DAD0CF843069F4C8017DDFC12CD1
:101FA000D12C282F2053330B2A303105C0F0C11417
:101FB000D10411F58111BFCF80915202877059F081
:101FC000F7018581811539F08091540282FF03C0A9
:101FD00082E00E94BE022496EDE00C94FC1C4AE0D4
:101FE0004C9DC0014D9D900D1124280F391F690192
:101FF0008B2D9A2D51DFD5CFEFE9FFE03197F1F727
:1020000000C0000091E0C91AD108D1CFE82FF0E05C
:10201000ED50FD4F9491792E282F269526952695E3
:1020200030E0F901ED51FD4FC4908770D12C082E9E
:1020300002C0D594C7940A94E2F7F901ED52FD4F1E
:10204000A490B12C082E02C0B594A7940A94E2F78C
:102050002D533D4FF9018490912C02C095948794A3
:102060008A95E2F7C0FE02C081EEA2D9A0FE02C0AE
:1020700086EE9ED960E070E0872D29DAA0FE02C0CE
:1020800086EEFAD9C0FE02C081EEF6D980FE53CFAB
:102090008CE260CFF801E851FC47E730F10508F029
:1020A00099C3E456F24E0C94CE1C26E241EE61EE4A
:1020B00039DA82CF27E245EE65EEFACF26E241EE2D
:1020C00060EEF6CF27E245EE64EEF2CF26E241EE77
:1020D00062EEEECF27E245EE66EEEACF28E241E07F
:1020E000EBCF809153028160809353026091530241
:1020F0007091540284E090E00E945C1D6ADA5CCF2B
:1021000080915402886080935402F0CF80915302F2
:102110008260EACF809153028460E6CF80915302BF
:102120008860E2CF809154028160EDCF80915402AB
:102130008260E9CF809153028061D6CF80915302B3
:102140008062D2CF809153028064CECF42DA8091F8
:1021500053028068C9CF809153028C60C5CF8091B3
:1021600054028360D0CF809153028E7FBDCF809187
:102170005402877FC8CF809153028D7FB5CF809165
:1021800053028B7FB1CF80915302877FADCF809177
:1021900054028E7FB8CF809154028D7FB4CF80914E
:1021A00053028F7EA1CF809153028F7D9DCF80916E
:1021B00053028F7B99CF0DDA809153028F7794CFA2
:1021C00080915302837F90CF809154028C7F9BCF6C
:1021D00090915302892F8B7F92FF8460877F92FFBB
:1021E000886082CF80915402982F909590FB80F95F
:1021F00090FB81F988CF90915302892F8F7B96FFB6
:10220000806472CFE6D990915302892F97FB87F9AA
:1022100080586ACF61E08EE090E00E94421D66CF58
:1022200060E0F9CF90915302892F8F7E94FF8061F7
:102230005BCF90915302892F8E7F90FF816054CFA6
:1022400090915402892F877F93FF88605CCF89E249
:10225000BCC289E2CAC207379CE71907F1F0083708
:102260009CE7190749F19801205E3245203231057B
:1022700048F581113EC00F7181E090E002C0880FE7
:10228000991F0A95E2F78C01682F83E090E00E9485
:10229000421D802F0E94F4018FCE811549F081E00C
:1022A0000E94FA0143E062E081E00E94770284CE5E
:1022B00081E00E940302F6CF811511F082E0F0CF99
:1022C00082E0F7CF8115A9F00A358CE7180709F4E9
:1022D00080C008F05AC001308CE7180709F478C0B4
:1022E00003308CE7180709F46DC001151C4709F489
:1022F0005DC0F701858100811181811509F46DC0F0
:10230000C8013CDDD82E682FC8010E940E02B8011A
:102310008D2D28DD0E94F503182FA92EF701D580F9
:10232000B680B2948FE0B82280915202877001F19A
:10233000CD2CD114F1F0892F807F803461F0812F72
:10234000805E8830A8F0892F807E803221F41230A0
:1023500078F0B11469F08091540282FF09C082E0E4
:102360000E94BE02809152028770CC24C3948111D6
:10237000C12CEA2DE295EF708A2D803C08F091C0C7
:10238000F0E0ED55F24E0C94CE1C0B358CE718079F
:1023900011F10C351C4709F0ACCF80915402002498
:1023A00082FF0394802D0E940B09A3CF12D98FEFD7
:1023B00094E32CE0815090402040E1F700C0000001
:1023C0000E9483086FEF7FEF80E090E00E945C1D29
:1023D0002AD981E0E8CF80E0E6CFC8010E9444021C
:1023E000D82E95CF0A2D0F70803110F00295007F06
:1023F000D114B9F0011569F0812F805E883010F09A
:10240000111109C080914D02802B80934D020E94D2
:102410008409812F3EC080915502802B8093550204
:10242000F6CF812F29D80115E1F1812F805E883008
:1024300010F0111104C0802F0E94FB0206C000950D
:10244000809155028023809355020E94840929C0FF
:102450000A2D0F70807F803211F00295007F1130BD
:1024600040F009F464C0D11409F46FC0B114A9F1AB
:10247000D0CF8091540282FD2CC0D11469F0011597
:1024800039F080914D02802B80934D020E94840987
:1024900080E00E94D80905C080E00E943C0A01113A
:1024A000CACFC11409F4B0C08091520280FDACC003
:1024B000F70115828695869586950E94FA01C701D7
:1024C00009DD809152028695869586950E940302C9
:1024D0009BC0D11491F0B11003C0802F15D8E1CF6B
:1024E0008B2D8130F1F690914E02802F89230817B1
:1024F000C1F2902B90934E02D4CFB110D2CF802F47
:102500000CD890914E02802F892329F0802F80953E
:10251000892380934E0290914F02802F892309F4E2
:10252000C0CF802F8095892380934F02BACF8B2D07
:10253000D11421F0863008F0B4CFCFCF853008F029
:10254000B0CF802F0E948D0AACCFB114D1F31933D4
:1025500049F48FEF97EE23E0815090402040E1F75F
:1025600000C00000812F0E943C0A9BCF8695869573
:102570008370813060F009F094CF812F9A2D937091
:10258000D11002C080E090E00E94BF058ACF812F69
:102590009A2D9370D11002C080E090E00E949805BF
:1025A00080CF6D2D812F0E9479067BCF8370D9F566
:1025B000D11028C0812F829586958770880F880F4B
:1025C000412F4F70082E01C0440F0A94EAF7212FC3
:1025D000207114FF06C02FE001C0220F8A95EAF790
:1025E00020958A2D869586958370982F823099F054
:1025F0008330B1F080915002913051F0242B82232E
:102600000E94F4010E94890560E0C701E5DBE3CC8C
:10261000842B822BF5CF242B809150028227F0CF80
:10262000822F842BEDCFD11459F1A0FEEBCF812F57
:10263000829586958770880F880F412F4F70082EDE
:1026400001C0440F0A94EAF7212F207114FF06C03D
:102650002FE001C0220F8A95EAF720958A2D8695F2
:1026600086958370982F823089F08330A1F0809115
:102670005102913041F0242B82230E94F701C2CFF6
:102680008230A8F6BFCF842B822BF7CF242B8091EA
:1026900051028227F2CF822F842BEFCF8F70082F29
:1026A000D11431F00E94FA01812F0E94840AAACF2E
:1026B000812F0E948D0A802F0E940302A3CF123F18
:1026C00081F170F4103FC9F0113F91F0D11409F479
:1026D00056C0B11409F450C0812F0E94D80992CF7E
:1026E000133F29F1143F91F79091540292FD2CC0B1
:1026F0008A2D8F71D11401F317C08B2DD11479F06D
:10270000853008F07FCF8A2D8F71282F81E001C09E
:10271000880F2A95EAF7909151028927AECF86302B
:10272000F0CF8F71D110C8CF0E94FA016BCF80E03B
:10273000D11409F4A2CF8A2D8F71982F81E001C0A6
:10274000880F9A95EAF799CFD11459F08F7192FFBB
:10275000EBCF982F990F990F990F93609093520296
:10276000E3CF81E00E94BE028B2D823008F44ACF75
:1027700082E00E94BE0246CF8A2D8F71D5CFB11460
:1027800079F0193349F48FEF97EE23E081509040B0
:102790002040E1F700C00000812F0E943C0A32CFA8
:1027A0008A2D8F7189CF06319CE7190709F053CD27
:1027B00080914D028A7A91E0811101C090E090935E
:1027C0004C02811509F443CD85E30E94E6050E9481
:1027D0008409F2CB06319CE7190709F03CCD8091C2
:1027E0004C02811509F435CD85E30E941A06EFCF1E
:1027F000F801E851FC47E730F10508F452CC10929B
:102800004B02980130572332310568F684E090E09E
:102810000E942E1D8093530290935402F801E150C0
:10282000F047E232F10508F05CCCE155F24E0C9431
:10283000CE1C80919602803170F4809195028115B2
:1028400051F0E0915702209156023091910240914F
:1028500090022E1301C00895BF0187E0E89FF001A8
:102860001124DF01A85ABD4F14968C91149781153D
:1028700051F111968C911197831325C08C9184137B
:1028800022C015968C91159781111DC012968D91BD
:102890009D91A0919202B09193028A1B9B0B883C60
:1028A000910588F4809196028F70806180939602E2
:1028B000E25AFD4F80818F708061808380E992E0D1
:1028C00009DB0C94B4026F5F7F4FFB01E770C1CF4F
:1028D000ADE0B0E0EEE6F4E10C94E01C8C0186E0A3
:1028E000F801DE01189601900D928A95E1F7F80142
:1028F000F580848190E9892E92E0992E709094025F
:10290000711016C0811589F0F11409F40AC1C801CB
:102910008BDA811509F405C187E0F801A0E9B2E07E
:1029200001900D928A95E1F784DFFF24F39454C05F
:10293000D080A280B380C090950220919202309105
:102940009302A501421B530BC11409F4BBC0483CC0
:10295000510508F075C0811541F380919102918075
:10296000E09096029E2D903108F056C0981214C047
:10297000809190028D1110C0F11048C08E2D8F7083
:1029800080618093960280E992E0A4DA80919602B9
:10299000F8018683F12C20C0F11038C040E0692D89
:1029A0008D2D0E94950240E0692D8D2D0E9495028B
:1029B000F82E8111EFCF888599852BDA292F229562
:1029C0002F70903470F49F70223098F09115A9F018
:1029D000F8019681903188F48F2D2D96EDE00C94BE
:1029E000FC1C2A5F2F70223060F0C80173DAFC2CC7
:1029F000F3CF911511F0811579F3805E883060F383
:102A0000F4CF803F48F3815F8330F9CF8091960205
:102A1000816080939602BECF981237C08091900259
:102A20008D1133C0F11031C0E682C80153DA87E05E
:102A3000F801A0E9B2E001900D928A95E1F775CF17
:102A4000E09096029E2D903148F480E992E042DABF
:102A5000F40187E011928A95E9F79CCF811509F47A
:102A600064CF90919102818198130FC08091900260
:102A70008D110BC0F11009C0E682C8012BDAF401F8
:102A800087E011928A95E9F750CFC801CDD9811519
:102A900009F447C0F11409F444C08E2D803208F4C3
:102AA0003BCF809190029091910289839A83AB826F
:102AB000BC827D821E82809196028F83CE01019618
:102AC00009DA2ACF483C510508F0C2CF811509F434
:102AD0002CCFF11431F1909191028181981318C09B
:102AE000809190028D1114C08091960280FD9FCF3D
:102AF000803108F49CCF8683807F803F09F495CF96
:102B00008681982F907F905F8F70892B86838DCFE1
:102B1000C8018AD9811100CF80919602816080938B
:102B20009602C801D7D901CFABE1B0E0E9E9F5E100
:102B300050C74E8B5F8B688F798F8A8F192F9B8F31
:102B40009111109255021D8A86E0FE017696DE01F3
:102B50001F9601900D928A95E1F70A8D011551F0AB
:102B60000B8B1C8B61E0CE010F9636D961E0CE0154
:102B70000F9632D90B8B1C8B87E0FE013F96DE014E
:102B8000189601900D928A95E1F7CE010896A0DE85
:102B900081112EC0209156023091570287E0AE017C
:102BA000485F5F4FFA0147505109DA0101900D92D9
:102BB0008A95E1F78C858115D9F0822F90E0839575
:102BC000877090E0AC0134171506D9F097E0929F1A
:102BD000D0011124A85ABD4F9E012F5F3F4FF9012C
:102BE00001900D929A95E1F7409356020E94B4022B
:102BF0008091570290915602891310C06B96E4E0C1
:102C000004C70E94E90A1092560210925702E0E9A6
:102C1000F2E087E011928A95E9F7EACF27E0829FF8
:102C2000C0011124885A9D4F53DE811539F38091DC
:102C30005702909158020196877080935702D8CF1F
:102C4000A6E0B0E0E5E2F6E1C4C60E9445068C01CC
:102C500080911002909111028017910771F01982F2
:102C60001A820E944506BC0149815A8180E090E0A9
:102C70005BDF00931002109311022696E4E0C5C6B4
:102C800085E290E0E3D6853259F486E290E0DED624
:102C9000883031F487E290E0D9D691E0843209F0AF
:102CA00090E0892F81700895A0E1B0E0E9E5F6E1B8
:102CB00084C6FE013196DF0180E11D928A95E9F715
:102CC00008E310E099E8A92EB12C27E7422E23E073
:102CD000522E612C712C9E2E8F2E6201730181E188
:102CE00048165104610471041CF080E1C82ED12CF7
:102CF000A601B501892D982DB6D6AC0CBD1C0D2CA6
:102D0000000C00084C185D08600870080150104065
:102D100021F76096E0E16DC66FEF85E290E0B2D6F4
:102D20006FEF86E290E0AED66FEF87E290E0AAD632
:102D300060E088E290E0A6D60E944609B5DF65E231
:102D400085E290E09FD668E086E290E09BD664E260
:102D500087E290E097C6CDB7DEB7A0970FB6F8949C
:102D6000DEBF0FBECDBF85B7806885BF85B78068E1
:102D700085BF84B7877F84BF0FB6F894A8958091EC
:102D80006000886180936000109260000FBE80E850
:102D900090E00FB6F89480936100909361000FBEAD
:102DA00081E080930F0181EE94E08093A6019093DF
:102DB000A7010E9465080E9416088091E2008460C5
:102DC0008093E200789480910602811599F08091B9
:102DD000E9001091EC008F7010FB112717F9182BE8
:102DE0001092E9008091E80083FD0E94280B1F707B
:102DF0001093E90082E084BD93E095BD9AEF97BD02
:102E000080936E003DDF811101C086DFE8EFF1E0C5
:102E100088E011928A95E9F782E08093F70110E04B
:102E200060E0812F0E94F90461E0812F0E94F90483
:102E3000812F11E08130A1F78FE891E00197F1F740
:102E400000C0000010E08091F701181708F471C06D
:102E500084E30E94E30485E30E94E30486E30E9486
:102E6000E30436E3E32E31E0F32E0AE311E0F70149
:102E700081917F018F3F11F00E94E3040E151F0521
:102E8000B1F7EAE0F2E083E011928A95E9F7EDE02C
:102E9000F2E083E011928A95E9F780E090E0DED5D8
:102EA000833E9E4F19F4ECDE811122C063EE7EEF6B
:102EB00080E090E001D660E082E090E0E3D581E040
:102EC0008093500261E083E090E0DCD560E074E143
:102ED00084E090E0F1D520DF60E070E0AB018FE0AE
:102EE00090E0E2D560E070E0AB0183E190E0DCD5FA
:102EF00082E090E0ABD58093EF0184E090E0AED526
:102F000080935302909354020E94DF0D8FE39CE95B
:102F10000197F1F700C000000E94DF0D80910A02C6
:102F200080FF19C06FEF7FEF80E090E0C5D50E9471
:102F3000830860E0812F0E941905082F61E0812F2E
:102F40000E941905E12FF0E0EB50FE4F880F802B17
:102F500080831F5F78CF83E090E078D50E94F401F2
:102F600080E091E0809332029093330210E47E017E
:102F70008FEFE81AF80A80910602853041F48091BB
:102F80000602853049F10E94E90A0E9489050E94E3
:102F9000DF0D9091F00180910A0298136DC090911D
:102FA000F10180910B02981367C09091F20180911A
:102FB0000C02981361C044DE80910002811551F02B
:102FC0008091FA01109200028093FB018091F80138
:102FD0008093F901D12CD4C080910602843019F17C
:102FE0001092ED0188E190E00FB6F894A8958093D7
:102FF00060000FBE1093600083B7817F846083BF41
:1030000083B7816083BF7894889583B78E7F83BFB1
:103010000FB6F894A8958091600088618093600055
:10302000109260000FBE0E94DF0D80910B02909104
:103030000A02892B90910C02892B09F4A0CF809170
:10304000EE01811509F49BCF80E189BD82E189BD44
:1030500009B400FEFDCF8091D8008F7D8093D80009
:103060008091E00082608093E0008091E00081FD2B
:10307000FCCF0E94E90A83CF9AE0A92E92E0B92EF4
:1030800020EFC22E21E0D22E00E0F50191905F01E9
:10309000F60161906F01691411F16924812C772484
:1030A0007394862D8721A1F089820A830E944506A8
:1030B0008B839C8381E08D8391E0892D872109F4A6
:1030C00090E09E8349815A816B817C818D812CDDCA
:1030D0008394770C882D843021F7F60192920F5F4C
:1030E000033099F60E94300767CFC090FB01009132
:1030F000FA0161E08D2D0E941905B82E60E08D2D3A
:103100000E941905BB0C8B292D2D30E0D901AB5045
:10311000BE4FEC919E2F9370891789F1EE0FEE0F41
:10312000E82BEC93EF70F0E0ED5DFE4F2D503E4F3D
:103130008081F9019081890F84300CF446C0402FC2
:1031400050E0BA016395637070E0C616170679F017
:1031500048505E4F9D2D9F77FA0194830F5F037057
:103160000093FA019091F8019F5F9093F801982FD6
:10317000990F990B64E070E0FED3F9018083D3943A
:103180008091F701D81608F4B0CF90E08091FB0150
:103190002091FA01281781F1E82FF0E0E450FE4F6A
:1031A0009081292F2F778F5F83708093FB0180910F
:1031B000F9018F5F8093F9012115B9F02130D1F425
:1031C00089EA97FD15C08AEA13C08D3F84F6402F27
:1031D00050E0BA016395637070E0C616170639F2C5
:1031E00048505E4F9D2D9068B7CF8CED97FF8BEDCB
:1031F0000E947D0A91E0CACF91110E94300786E0BB
:10320000E5E4F2E0D70101900D928A95E1F7809014
:103210004602A09047020091480290904902B09067
:103220004A021092470210924802109249021092EC
:103230004A02802F8A2909F441C0C0900302D0902D
:1032400004020E9445068C199D099C01909143023D
:10325000911509F415C22531310580F19F3F19F010
:103260009F5F90934302A11459F00E94440591E09E
:103270001A140CF09FEF899F802D11248093470230
:10328000011559F00E94440591E010160CF09FEFD3
:10329000899F802D112480934802809147028115D7
:1032A00069F0D0904802D11449F00E94360580930D
:1032B00047028D2D0E94360580934802892D8B2967
:1032C00009F441C0C0900102D09002020E9445065C
:1032D0008C199D099C0190914202911509F4CBC172
:1032E0002135310580F19F3F19F09F5F9093420295
:1032F000911459F00E94640591E019140CF09FEFAD
:10330000899F802D112480934902B11459F00E94A5
:10331000640591E01B140CF09FEF899F802D112410
:1033200080934A0280914902811569F0D0904A0247
:10333000D11449F00E943605809349028D2D0E94D8
:10334000360580934A0280914602881119C0809107
:103350004702811511F08A1113C0209148022115EE
:1033600011F020130DC090914A02911511F09B119C
:1033700007C030914902311103C0822B892B11F013
:103380000E94510686E0F701A5E4B2E001900D929B
:103390008A95E1F70E94890590910502891721F02D
:1033A000809305020E94300780910602843009F064
:1033B000E2CD83E08093E9008091E80082FFDBCDDD
:1033C0008091E80090E085FF05C00E94E507811527
:1033D00089F091E08091E8008B778093E800911567
:1033E00009F4C9CDE981E150E33170F5F0E0EF5225
:1033F000F24ED4C280E2A82EB12C67018091E80081
:1034000085FD0AC08091E8008B778093E8000E94D8
:10341000E507811599F3DDCF8091F100F6018083F6
:1034200081E0A81AB108A9F28FEFC81AD80AE6CF2E
:103430001A828CE08B8319C08A81833079F138F449
:10344000813021F1823051F08FEF89830EC08430BA
:10345000D9F71B821C821D821E8207C088E290E081
:10346000F5D21B821C821D828E83E0913202F09184
:103470003302309709F47FCD0284F385E02D309735
:1034800009F479CD60E2C701099575CD0E94300736
:103490008BD26B837C838D839E83E7CF8B8190E07F
:1034A000FE0134968330910504F7DC01A65FBD4F21
:1034B0002C9121930196F6CF8A81823019F08530C4
:1034C000A1F2C2CF6B817C818D819E816DD288E219
:1034D00090E0D8D2CACF4C816B818A810E94890E3C
:1034E0009C013827232732272D833E83BECF2D8191
:1034F0003E813227232732274C816B818A810E94AB
:103500002109B3CF0E944609B0CF80E18A83ADCFB5
:1035100083E08A8387E78ECF4A805B8054244524EA
:103520005424612C712C67018C815701A80EB11CA9
:10353000AC14BD0409F499CF87E7481683E0580618
:103540006104710478F4C20187579F4F7FD2F6015E
:1035500084838FEFC81AD80A8FEF481A580A680A6E
:10356000780AE6CF80E0F3CF0C818A809B80982494
:1035700089249824A12CB12C670125013201401621
:1035800051046104710408F070CF87E7881683E066
:103590009806A104B10430F4F6016481C401875790
:1035A0009F4F70D28FEF481A580A680A780A8FEF37
:1035B000881A980AA80AB80A8FEFC81AD80ADFCF63
:1035C00073DB53CF84E0A2CF0C818A809B80982448
:1035D00089249824A12CB12C250132016E0185E0AB
:1035E000C80ED11C401651046104710408F03DCF8F
:1035F00080E688169104A104B10488F4C401899678
:1036000025D2F60181936F018FEF481A580A680A94
:10361000780A8FEF881A980AA80AB80AE3CF80E0E0
:10362000F0CF0C818A809B80982489249824A12C37
:10363000B12C670125013201401651046104710467
:1036400008F013CF80E688169104A104B10428F491
:10365000F6016481C401899615D28FEF481A580A81
:10366000680A780A8FEF881A980AA80AB80A8FEFB2
:10367000C81AD80AE1CF2B30310508F036CE63CE18
:103680002B30310508F0ECCD19CE1F921FB61F92DA
:1036900011248F939F93AF93BF938091ED0181117C
:1036A00013C08091E3019091E401A091E501B091F4
:1036B000E6014196A11DB11D8093E3019093E401C1
:1036C000A093E501B093E601BF91AF919F918F91D7
:1036D0001F901FBE1F90189578941F921FB61F92BF
:1036E00011248F939F93AF93BF938091E3019091A7
:1036F000E401A091E501B091E6010196A11DB11D83
:103700008093E3019093E401A093E501B093E60177
:10371000BF91AF919F918F911F901FBE1F901895E1
:103720001F920F920FB60F9211242F933F934F9336
:103730005F936F937F938F939F93AF93BF93EF9319
:10374000FF938091E10082FF09C08091E20082FF37
:1037500005C08091E1008B7F8093E1008091DA00C9
:1037600080FF24C08091D80080FF20C08091DA00C3
:103770008E7F8093DA008091D90080FFA9C080E11C
:1037800089BD82E189BD09B400FEFDCF81E080934F
:1037900006028091D201811109C00E9465080E9431
:1037A00016088091E20084608093E2008091E1003D
:1037B00080FF1AC08091E20080FF16C08091E20075
:1037C0008E7F8093E2008091E20080618093E2002E
:1037D0008091D80080628093D80019BC85E08093E6
:1037E000060283E080930F018091E10084FF2FC0E7
:1037F0008091E20084FF2BC080E189BD82E189BD18
:1038000009B400FEFDCF8091D8008F7D8093D80051
:103810008091E1008F7E8093E1008091E2008F7EB5
:103820008093E2008091E20081608093E2008091C9
:10383000D101811509F452C084E080930602809181
:103840000602843009F052C082E080930F0180911B
:10385000E10083FF2CC08091E20083FF28C08091AB
:10386000E100877F8093E10082E08093060210925E
:10387000D1018091E1008E7F8093E1008091E20090
:103880008E7F8093E2008091E20080618093E2006D
:1038900042E060E080E00E9496078091F00088603E
:1038A0008093F00081E080930F0180930E01FF91DF
:1038B000EF91BF91AF919F918F917F916F915F91A8
:1038C0004F913F912F910F900FBE0F901F90189521
:1038D00019BC109206021092D20168CF8091E300C9
:1038E00087FF02C083E0A9CF81E0A7CF81E0ADCF01
:1038F0001F920F920FB60F9211241F932F933F9395
:103900004F935F936F937F938F939F93AF93BF93E7
:10391000CF93DF93EF93FF93E9EEF0E08081109176
:10392000EC008F7010FB112717F9182B1082C0EFD5
:10393000D0E08881877F888378940E94280BE9EE05
:10394000F0E010828881886088831F701083FF9167
:10395000EF91DF91CF91BF91AF919F918F917F9127
:103960006F915F914F913F912F911F910F900FBEDB
:103970000F901F90189597FB072E16F4009406D011
:1039800077FD08D04FD007FC05D03EF49095819587
:103990009F4F0895709561957F4F0895EE0FFF1F1B
:1039A0000590F491E02D09946927962769277827D7
:1039B0008727782708952F923F924F925F926F92B8
:1039C0007F928F929F92AF92BF92CF92DF92EF92AF
:1039D000FF920F931F93CF93DF93CDB7DEB7CA1B30
:1039E000DB0B0FB6F894DEBF0FBECDBF09942A885B
:1039F000398848885F846E847D848C849B84AA8403
:103A0000B984C884DF80EE80FD800C811B81AA818F
:103A1000B981CE0FD11D0FB6F894DEBF0FBECDBF5A
:103A2000ED010895AA1BBB1B51E107C0AA1FBB1FD4
:103A3000A617B70710F0A61BB70B881F991F5A953A
:103A4000A9F780959095BC01CD010895F999FECF15
:103A500092BD81BDF89A992780B50895A8E1B0E09C
:103A600042E050E02FC0DC01A40FB51F4150504090
:103A700040F0CB01840F951F2E9105D0415050404E
:103A8000D8F70895262FF999FECF92BD81BDF89AF7
:103A9000019700B4021639F01FBA20BD0FB6F89492
:103AA000FA9AF99A0FBE08950396272FECDFEADF02
:103AB000252FE9DF242FE7CF0196272FE4DFE2CF80
:103AC000DC01CB01FC01F999FECF06C0F2BDE1BDDE
:103AD000F89A319600B40D9241505040B8F70895CD
:103AE000FB01DC0104C08D910190801921F441504B
:103AF0005040C8F7881B990B0895F894FFCF8506AE
:103B00008A068C069106A106A106A106A106A106B9
:103B1000A106A106A106930697069A069F06AE0681
:103B2000B406B806060C2C0C320C2C0C320C800C93
:103B3000A20C320C9D0DAA0D5E10621055105A1089
:103B400066106A106E10F211F21128122812B612C5
:103B5000D11251125112D6124E135F135F13B310CC
:103B60001911BB1086108A10BF108E10C310CF1011
:103B70009A1012119E10D310A210D710FB10A6108D
:103B8000DB100211AB10E010E8109210C710961075
:103B9000CB10AF10E410F2100A1110118010B71002
:103BA0002011181A1C1A5C1A6B1A771A821A241A16
:103BB000241A241A241A241A851A881A8C1AB41A58
:083BC000E01AE21AE41A111BDD
:103BC8004206E908FC0801090609E10800000100AD
:103BD8004422B684016201AC00DA01F301130291B8
:103BE80094909300FF0100010000FFFF0000010016
:103BF80001FF0034353630313233E200E900EA00A3
:103C0800B500B600B700CD008301CC008A0192014F
:103C180094012102230224022502260227022A02F5
:103C2800B300B4006F0070009F01CB019F02A00297
:103C3800E200E900EA00B500B600B700CD00830154
:103C4800CC008A0192019401210223022402250258
:103C5800260227022A02B300B4006F0070009F01F9
:063C6800CB019F02A00247
:00000001FF
